{
  "_format": "hh-sol-artifact-1",
  "contractName": "ResumeNFT",
  "sourceName": "contracts/ResumeNFT.sol",
  "abi": [
    {
      "inputs": [],
      "stateMutability": "nonpayable",
      "type": "constructor"
    },
    {
      "anonymous": false,
      "inputs": [
        {
          "indexed": true,
          "internalType": "address",
          "name": "owner",
          "type": "address"
        },
        {
          "indexed": true,
          "internalType": "address",
          "name": "approved",
          "type": "address"
        },
        {
          "indexed": true,
          "internalType": "uint256",
          "name": "tokenId",
          "type": "uint256"
        }
      ],
      "name": "Approval",
      "type": "event"
    },
    {
      "anonymous": false,
      "inputs": [
        {
          "indexed": true,
          "internalType": "address",
          "name": "owner",
          "type": "address"
        },
        {
          "indexed": true,
          "internalType": "address",
          "name": "operator",
          "type": "address"
        },
        {
          "indexed": false,
          "internalType": "bool",
          "name": "approved",
          "type": "bool"
        }
      ],
      "name": "ApprovalForAll",
      "type": "event"
    },
    {
      "anonymous": false,
      "inputs": [
        {
          "indexed": true,
          "internalType": "address",
          "name": "from",
          "type": "address"
        },
        {
          "indexed": true,
          "internalType": "address",
          "name": "to",
          "type": "address"
        },
        {
          "indexed": true,
          "internalType": "uint256",
          "name": "tokenId",
          "type": "uint256"
        }
      ],
      "name": "Transfer",
      "type": "event"
    },
    {
      "inputs": [],
      "name": "Resume",
      "outputs": [
        {
          "internalType": "address",
          "name": "sender",
          "type": "address"
        },
        {
          "internalType": "string",
          "name": "message",
          "type": "string"
        },
        {
          "internalType": "string",
          "name": "keyword",
          "type": "string"
        }
      ],
      "stateMutability": "view",
      "type": "function"
    },
    {
      "inputs": [
        {
          "internalType": "address",
          "name": "",
          "type": "address"
        }
      ],
      "name": "Resumelist",
      "outputs": [
        {
          "internalType": "address",
          "name": "sender",
          "type": "address"
        },
        {
          "internalType": "string",
          "name": "message",
          "type": "string"
        },
        {
          "internalType": "string",
          "name": "keyword",
          "type": "string"
        }
      ],
      "stateMutability": "view",
      "type": "function"
    },
    {
      "inputs": [
        {
          "internalType": "address",
          "name": "to",
          "type": "address"
        },
        {
          "internalType": "uint256",
          "name": "tokenId",
          "type": "uint256"
        }
      ],
      "name": "approve",
      "outputs": [],
      "stateMutability": "nonpayable",
      "type": "function"
    },
    {
      "inputs": [
        {
          "internalType": "address",
          "name": "owner",
          "type": "address"
        }
      ],
      "name": "balanceOf",
      "outputs": [
        {
          "internalType": "uint256",
          "name": "",
          "type": "uint256"
        }
      ],
      "stateMutability": "view",
      "type": "function"
    },
    {
      "inputs": [
        {
          "internalType": "uint256",
          "name": "tokenId",
          "type": "uint256"
        }
      ],
      "name": "getApproved",
      "outputs": [
        {
          "internalType": "address",
          "name": "",
          "type": "address"
        }
      ],
      "stateMutability": "view",
      "type": "function"
    },
    {
      "inputs": [
        {
          "internalType": "address",
          "name": "owner",
          "type": "address"
        },
        {
          "internalType": "address",
          "name": "operator",
          "type": "address"
        }
      ],
      "name": "isApprovedForAll",
      "outputs": [
        {
          "internalType": "bool",
          "name": "",
          "type": "bool"
        }
      ],
      "stateMutability": "view",
      "type": "function"
    },
    {
      "inputs": [],
      "name": "makeAnEpicResume",
      "outputs": [],
      "stateMutability": "nonpayable",
      "type": "function"
    },
    {
      "inputs": [],
      "name": "name",
      "outputs": [
        {
          "internalType": "string",
          "name": "",
          "type": "string"
        }
      ],
      "stateMutability": "view",
      "type": "function"
    },
    {
      "inputs": [
        {
          "internalType": "uint256",
          "name": "tokenId",
          "type": "uint256"
        }
      ],
      "name": "ownerOf",
      "outputs": [
        {
          "internalType": "address",
          "name": "",
          "type": "address"
        }
      ],
      "stateMutability": "view",
      "type": "function"
    },
    {
      "inputs": [
        {
          "internalType": "address",
          "name": "from",
          "type": "address"
        },
        {
          "internalType": "address",
          "name": "to",
          "type": "address"
        },
        {
          "internalType": "uint256",
          "name": "tokenId",
          "type": "uint256"
        }
      ],
      "name": "safeTransferFrom",
      "outputs": [],
      "stateMutability": "nonpayable",
      "type": "function"
    },
    {
      "inputs": [
        {
          "internalType": "address",
          "name": "from",
          "type": "address"
        },
        {
          "internalType": "address",
          "name": "to",
          "type": "address"
        },
        {
          "internalType": "uint256",
          "name": "tokenId",
          "type": "uint256"
        },
        {
          "internalType": "bytes",
          "name": "_data",
          "type": "bytes"
        }
      ],
      "name": "safeTransferFrom",
      "outputs": [],
      "stateMutability": "nonpayable",
      "type": "function"
    },
    {
      "inputs": [
        {
          "internalType": "address",
          "name": "operator",
          "type": "address"
        },
        {
          "internalType": "bool",
          "name": "approved",
          "type": "bool"
        }
      ],
      "name": "setApprovalForAll",
      "outputs": [],
      "stateMutability": "nonpayable",
      "type": "function"
    },
    {
      "inputs": [
        {
          "internalType": "string",
          "name": "_message",
          "type": "string"
        },
        {
          "internalType": "string",
          "name": "_keyword",
          "type": "string"
        }
      ],
      "name": "setResumeMetaData",
      "outputs": [
        {
          "components": [
            {
              "internalType": "address",
              "name": "sender",
              "type": "address"
            },
            {
              "internalType": "string",
              "name": "message",
              "type": "string"
            },
            {
              "internalType": "string",
              "name": "keyword",
              "type": "string"
            }
          ],
          "internalType": "struct ResumeNFT.ResumeStruct",
          "name": "",
          "type": "tuple"
        }
      ],
      "stateMutability": "nonpayable",
      "type": "function"
    },
    {
      "inputs": [
        {
          "internalType": "bytes4",
          "name": "interfaceId",
          "type": "bytes4"
        }
      ],
      "name": "supportsInterface",
      "outputs": [
        {
          "internalType": "bool",
          "name": "",
          "type": "bool"
        }
      ],
      "stateMutability": "view",
      "type": "function"
    },
    {
      "inputs": [],
      "name": "symbol",
      "outputs": [
        {
          "internalType": "string",
          "name": "",
          "type": "string"
        }
      ],
      "stateMutability": "view",
      "type": "function"
    },
    {
      "inputs": [
        {
          "internalType": "uint256",
          "name": "tokenId",
          "type": "uint256"
        }
      ],
      "name": "tokenURI",
      "outputs": [
        {
          "internalType": "string",
          "name": "",
          "type": "string"
        }
      ],
      "stateMutability": "view",
      "type": "function"
    },
    {
      "inputs": [
        {
          "internalType": "address",
          "name": "from",
          "type": "address"
        },
        {
          "internalType": "address",
          "name": "to",
          "type": "address"
        },
        {
          "internalType": "uint256",
          "name": "tokenId",
          "type": "uint256"
        }
      ],
      "name": "transferFrom",
      "outputs": [],
      "stateMutability": "nonpayable",
      "type": "function"
    }
  ],
  "bytecode": "0x60806040523480156200001157600080fd5b506040518060400160405280600981526020017f526573756d654e465400000000000000000000000000000000000000000000008152506040518060400160405280600681526020017f534b494c4c530000000000000000000000000000000000000000000000000000815250816000908051906020019062000096929190620000b8565b508060019080519060200190620000af929190620000b8565b505050620001cd565b828054620000c69062000168565b90600052602060002090601f016020900481019282620000ea576000855562000136565b82601f106200010557805160ff191683800117855562000136565b8280016001018555821562000136579182015b828111156200013557825182559160200191906001019062000118565b5b50905062000145919062000149565b5090565b5b80821115620001645760008160009055506001016200014a565b5090565b600060028204905060018216806200018157607f821691505b602082108114156200019857620001976200019e565b5b50919050565b7f4e487b7100000000000000000000000000000000000000000000000000000000600052602260045260246000fd5b61341580620001dd6000396000f3fe608060405234801561001057600080fd5b506004361061010b5760003560e01c806365c765cf116100a2578063a22cb46511610071578063a22cb465146102e2578063a27da393146102fe578063b88d4fde14610308578063c87b56dd14610324578063e985e9c5146103545761010b565b806365c765cf1461023257806370a082311461026257806375203b151461029257806395d89b41146102c45761010b565b806323b872dd116100de57806323b872dd146101aa57806342842e0e146101c6578063490d6d11146101e25780636352211e146102025761010b565b806301ffc9a71461011057806306fdde0314610140578063081812fc1461015e578063095ea7b31461018e575b600080fd5b61012a60048036038101906101259190612222565b610384565b6040516101379190612778565b60405180910390f35b610148610466565b6040516101559190612793565b60405180910390f35b610178600480360381019061017391906122e0565b6104f8565b60405161018591906126cc565b60405180910390f35b6101a860048036038101906101a391906121e6565b61057d565b005b6101c460048036038101906101bf91906120e0565b610695565b005b6101e060048036038101906101db91906120e0565b6106f5565b005b6101ea610715565b6040516101f993929190612733565b60405180910390f35b61021c600480360381019061021791906122e0565b61085d565b60405161022991906126cc565b60405180910390f35b61024c60048036038101906102479190612274565b61090f565b60405161025991906129b5565b60405180910390f35b61027c6004803603810190610277919061207b565b610b5d565b60405161028991906129d7565b60405180910390f35b6102ac60048036038101906102a7919061207b565b610c15565b6040516102bb93929190612733565b60405180910390f35b6102cc610d6f565b6040516102d99190612793565b60405180910390f35b6102fc60048036038101906102f791906121aa565b610e01565b005b610306610e17565b005b610322600480360381019061031d919061212f565b610e61565b005b61033e600480360381019061033991906122e0565b610ec3565b60405161034b9190612793565b60405180910390f35b61036e600480360381019061036991906120a4565b611015565b60405161037b9190612778565b60405180910390f35b60007f80ac58cd000000000000000000000000000000000000000000000000000000007bffffffffffffffffffffffffffffffffffffffffffffffffffffffff1916827bffffffffffffffffffffffffffffffffffffffffffffffffffffffff1916148061044f57507f5b5e139f000000000000000000000000000000000000000000000000000000007bffffffffffffffffffffffffffffffffffffffffffffffffffffffff1916827bffffffffffffffffffffffffffffffffffffffffffffffffffffffff1916145b8061045f575061045e826110a9565b5b9050919050565b60606000805461047590612c3e565b80601f01602080910402602001604051908101604052809291908181526020018280546104a190612c3e565b80156104ee5780601f106104c3576101008083540402835291602001916104ee565b820191906000526020600020905b8154815290600101906020018083116104d157829003601f168201915b5050505050905090565b600061050382611113565b610542576040517f08c379a000000000000000000000000000000000000000000000000000000000815260040161053990612935565b60405180910390fd5b6004600083815260200190815260200160002060009054906101000a900473ffffffffffffffffffffffffffffffffffffffff169050919050565b60006105888261085d565b90508073ffffffffffffffffffffffffffffffffffffffff168373ffffffffffffffffffffffffffffffffffffffff1614156105f9576040517f08c379a00000000000000000000000000000000000000000000000000000000081526004016105f090612975565b60405180910390fd5b8073ffffffffffffffffffffffffffffffffffffffff1661061861117f565b73ffffffffffffffffffffffffffffffffffffffff16148061064757506106468161064161117f565b611015565b5b610686576040517f08c379a000000000000000000000000000000000000000000000000000000000815260040161067d90612875565b60405180910390fd5b6106908383611187565b505050565b6106a66106a061117f565b82611240565b6106e5576040517f08c379a00000000000000000000000000000000000000000000000000000000081526004016106dc90612995565b60405180910390fd5b6106f083838361131e565b505050565b61071083838360405180602001604052806000815250610e61565b505050565b60088060000160009054906101000a900473ffffffffffffffffffffffffffffffffffffffff169080600101805461074c90612c3e565b80601f016020809104026020016040519081016040528092919081815260200182805461077890612c3e565b80156107c55780601f1061079a576101008083540402835291602001916107c5565b820191906000526020600020905b8154815290600101906020018083116107a857829003601f168201915b5050505050908060020180546107da90612c3e565b80601f016020809104026020016040519081016040528092919081815260200182805461080690612c3e565b80156108535780601f1061082857610100808354040283529160200191610853565b820191906000526020600020905b81548152906001019060200180831161083657829003601f168201915b5050505050905083565b6000806002600084815260200190815260200160002060009054906101000a900473ffffffffffffffffffffffffffffffffffffffff169050600073ffffffffffffffffffffffffffffffffffffffff168173ffffffffffffffffffffffffffffffffffffffff161415610906576040517f08c379a00000000000000000000000000000000000000000000000000000000081526004016108fd906128b5565b60405180910390fd5b80915050919050565b610917611e68565b60405180606001604052803373ffffffffffffffffffffffffffffffffffffffff16815260200184815260200183815250600860008201518160000160006101000a81548173ffffffffffffffffffffffffffffffffffffffff021916908373ffffffffffffffffffffffffffffffffffffffff16021790555060208201518160010190805190602001906109ad929190611e9f565b5060408201518160020190805190602001906109ca929190611e9f565b5090505060086040518060600160405290816000820160009054906101000a900473ffffffffffffffffffffffffffffffffffffffff1673ffffffffffffffffffffffffffffffffffffffff1673ffffffffffffffffffffffffffffffffffffffff168152602001600182018054610a4190612c3e565b80601f0160208091040260200160405190810160405280929190818152602001828054610a6d90612c3e565b8015610aba5780601f10610a8f57610100808354040283529160200191610aba565b820191906000526020600020905b815481529060010190602001808311610a9d57829003601f168201915b50505050508152602001600282018054610ad390612c3e565b80601f0160208091040260200160405190810160405280929190818152602001828054610aff90612c3e565b8015610b4c5780601f10610b2157610100808354040283529160200191610b4c565b820191906000526020600020905b815481529060010190602001808311610b2f57829003601f168201915b505050505081525050905092915050565b60008073ffffffffffffffffffffffffffffffffffffffff168273ffffffffffffffffffffffffffffffffffffffff161415610bce576040517f08c379a0000000000000000000000000000000000000000000000000000000008152600401610bc590612895565b60405180910390fd5b600360008373ffffffffffffffffffffffffffffffffffffffff1673ffffffffffffffffffffffffffffffffffffffff168152602001908152602001600020549050919050565b600b6020528060005260406000206000915090508060000160009054906101000a900473ffffffffffffffffffffffffffffffffffffffff1690806001018054610c5e90612c3e565b80601f0160208091040260200160405190810160405280929190818152602001828054610c8a90612c3e565b8015610cd75780601f10610cac57610100808354040283529160200191610cd7565b820191906000526020600020905b815481529060010190602001808311610cba57829003601f168201915b505050505090806002018054610cec90612c3e565b80601f0160208091040260200160405190810160405280929190818152602001828054610d1890612c3e565b8015610d655780601f10610d3a57610100808354040283529160200191610d65565b820191906000526020600020905b815481529060010190602001808311610d4857829003601f168201915b5050505050905083565b606060018054610d7e90612c3e565b80601f0160208091040260200160405190810160405280929190818152602001828054610daa90612c3e565b8015610df75780601f10610dcc57610100808354040283529160200191610df7565b820191906000526020600020905b815481529060010190602001808311610dda57829003601f168201915b5050505050905090565b610e13610e0c61117f565b8383611585565b5050565b6000610e2360076116f2565b9050610e2f3382611700565b610e548160405180610140016040528061011d81526020016132c361011d913961171e565b610e5e6007611792565b50565b610e72610e6c61117f565b83611240565b610eb1576040517f08c379a0000000000000000000000000000000000000000000000000000000008152600401610ea890612995565b60405180910390fd5b610ebd848484846117a8565b50505050565b6060610ece82611113565b610f0d576040517f08c379a0000000000000000000000000000000000000000000000000000000008152600401610f0490612915565b60405180910390fd5b6000600660008481526020019081526020016000208054610f2d90612c3e565b80601f0160208091040260200160405190810160405280929190818152602001828054610f5990612c3e565b8015610fa65780601f10610f7b57610100808354040283529160200191610fa6565b820191906000526020600020905b815481529060010190602001808311610f8957829003601f168201915b505050505090506000610fb7611804565b9050600081511415610fcd578192505050611010565b600082511115611002578082604051602001610fea9291906126a8565b60405160208183030381529060405292505050611010565b61100b8461181b565b925050505b919050565b6000600560008473ffffffffffffffffffffffffffffffffffffffff1673ffffffffffffffffffffffffffffffffffffffff16815260200190815260200160002060008373ffffffffffffffffffffffffffffffffffffffff1673ffffffffffffffffffffffffffffffffffffffff16815260200190815260200160002060009054906101000a900460ff16905092915050565b60007f01ffc9a7000000000000000000000000000000000000000000000000000000007bffffffffffffffffffffffffffffffffffffffffffffffffffffffff1916827bffffffffffffffffffffffffffffffffffffffffffffffffffffffff1916149050919050565b60008073ffffffffffffffffffffffffffffffffffffffff166002600084815260200190815260200160002060009054906101000a900473ffffffffffffffffffffffffffffffffffffffff1673ffffffffffffffffffffffffffffffffffffffff1614159050919050565b600033905090565b816004600083815260200190815260200160002060006101000a81548173ffffffffffffffffffffffffffffffffffffffff021916908373ffffffffffffffffffffffffffffffffffffffff160217905550808273ffffffffffffffffffffffffffffffffffffffff166111fa8361085d565b73ffffffffffffffffffffffffffffffffffffffff167f8c5be1e5ebec7d5bd14f71427d1e84f3dd0314c0f7b2291e5b200ac8c7c3b92560405160405180910390a45050565b600061124b82611113565b61128a576040517f08c379a000000000000000000000000000000000000000000000000000000000815260040161128190612855565b60405180910390fd5b60006112958361085d565b90508073ffffffffffffffffffffffffffffffffffffffff168473ffffffffffffffffffffffffffffffffffffffff16148061130457508373ffffffffffffffffffffffffffffffffffffffff166112ec846104f8565b73ffffffffffffffffffffffffffffffffffffffff16145b8061131557506113148185611015565b5b91505092915050565b8273ffffffffffffffffffffffffffffffffffffffff1661133e8261085d565b73ffffffffffffffffffffffffffffffffffffffff1614611394576040517f08c379a000000000000000000000000000000000000000000000000000000000815260040161138b906127d5565b60405180910390fd5b600073ffffffffffffffffffffffffffffffffffffffff168273ffffffffffffffffffffffffffffffffffffffff161415611404576040517f08c379a00000000000000000000000000000000000000000000000000000000081526004016113fb90612815565b60405180910390fd5b61140f8383836118c2565b61141a600082611187565b6001600360008573ffffffffffffffffffffffffffffffffffffffff1673ffffffffffffffffffffffffffffffffffffffff168152602001908152602001600020600082825461146a9190612b54565b925050819055506001600360008473ffffffffffffffffffffffffffffffffffffffff1673ffffffffffffffffffffffffffffffffffffffff16815260200190815260200160002060008282546114c19190612acd565b92505081905550816002600083815260200190815260200160002060006101000a81548173ffffffffffffffffffffffffffffffffffffffff021916908373ffffffffffffffffffffffffffffffffffffffff160217905550808273ffffffffffffffffffffffffffffffffffffffff168473ffffffffffffffffffffffffffffffffffffffff167fddf252ad1be2c89b69c2b068fc378daa952ba7f163c4a11628f55a4df523b3ef60405160405180910390a46115808383836118c7565b505050565b8173ffffffffffffffffffffffffffffffffffffffff168373ffffffffffffffffffffffffffffffffffffffff1614156115f4576040517f08c379a00000000000000000000000000000000000000000000000000000000081526004016115eb90612835565b60405180910390fd5b80600560008573ffffffffffffffffffffffffffffffffffffffff1673ffffffffffffffffffffffffffffffffffffffff16815260200190815260200160002060008473ffffffffffffffffffffffffffffffffffffffff1673ffffffffffffffffffffffffffffffffffffffff16815260200190815260200160002060006101000a81548160ff0219169083151502179055508173ffffffffffffffffffffffffffffffffffffffff168373ffffffffffffffffffffffffffffffffffffffff167f17307eab39ab6107e8899845ad3d59bd9653f200f220920489ca2b5937696c31836040516116e59190612778565b60405180910390a3505050565b600081600001549050919050565b61171a8282604051806020016040528060008152506118cc565b5050565b61172782611113565b611766576040517f08c379a000000000000000000000000000000000000000000000000000000000815260040161175d906128d5565b60405180910390fd5b8060066000848152602001908152602001600020908051906020019061178d929190611e9f565b505050565b6001816000016000828254019250508190555050565b6117b384848461131e565b6117bf84848484611927565b6117fe576040517f08c379a00000000000000000000000000000000000000000000000000000000081526004016117f5906127b5565b60405180910390fd5b50505050565b606060405180602001604052806000815250905090565b606061182682611113565b611865576040517f08c379a000000000000000000000000000000000000000000000000000000000815260040161185c90612955565b60405180910390fd5b600061186f611804565b9050600081511161188f57604051806020016040528060008152506118ba565b8061189984611abe565b6040516020016118aa9291906126a8565b6040516020818303038152906040525b915050919050565b505050565b505050565b6118d68383611c6b565b6118e36000848484611927565b611922576040517f08c379a0000000000000000000000000000000000000000000000000000000008152600401611919906127b5565b60405180910390fd5b505050565b60006119488473ffffffffffffffffffffffffffffffffffffffff16611e45565b15611ab1578373ffffffffffffffffffffffffffffffffffffffff1663150b7a0261197161117f565b8786866040518563ffffffff1660e01b815260040161199394939291906126e7565b602060405180830381600087803b1580156119ad57600080fd5b505af19250505080156119de57506040513d601f19601f820116820180604052508101906119db919061224b565b60015b611a61573d8060008114611a0e576040519150601f19603f3d011682016040523d82523d6000602084013e611a13565b606091505b50600081511415611a59576040517f08c379a0000000000000000000000000000000000000000000000000000000008152600401611a50906127b5565b60405180910390fd5b805181602001fd5b63150b7a0260e01b7bffffffffffffffffffffffffffffffffffffffffffffffffffffffff1916817bffffffffffffffffffffffffffffffffffffffffffffffffffffffff191614915050611ab6565b600190505b949350505050565b60606000821415611b06576040518060400160405280600181526020017f30000000000000000000000000000000000000000000000000000000000000008152509050611c66565b600082905060005b60008214611b38578080611b2190612ca1565b915050600a82611b319190612b23565b9150611b0e565b60008167ffffffffffffffff811115611b7a577f4e487b7100000000000000000000000000000000000000000000000000000000600052604160045260246000fd5b6040519080825280601f01601f191660200182016040528015611bac5781602001600182028036833780820191505090505b5090505b60008514611c5f57600182611bc59190612b54565b9150600a85611bd49190612cea565b6030611be09190612acd565b60f81b818381518110611c1c577f4e487b7100000000000000000000000000000000000000000000000000000000600052603260045260246000fd5b60200101907effffffffffffffffffffffffffffffffffffffffffffffffffffffffffffff1916908160001a905350600a85611c589190612b23565b9450611bb0565b8093505050505b919050565b600073ffffffffffffffffffffffffffffffffffffffff168273ffffffffffffffffffffffffffffffffffffffff161415611cdb576040517f08c379a0000000000000000000000000000000000000000000000000000000008152600401611cd2906128f5565b60405180910390fd5b611ce481611113565b15611d24576040517f08c379a0000000000000000000000000000000000000000000000000000000008152600401611d1b906127f5565b60405180910390fd5b611d30600083836118c2565b6001600360008473ffffffffffffffffffffffffffffffffffffffff1673ffffffffffffffffffffffffffffffffffffffff1681526020019081526020016000206000828254611d809190612acd565b92505081905550816002600083815260200190815260200160002060006101000a81548173ffffffffffffffffffffffffffffffffffffffff021916908373ffffffffffffffffffffffffffffffffffffffff160217905550808273ffffffffffffffffffffffffffffffffffffffff16600073ffffffffffffffffffffffffffffffffffffffff167fddf252ad1be2c89b69c2b068fc378daa952ba7f163c4a11628f55a4df523b3ef60405160405180910390a4611e41600083836118c7565b5050565b6000808273ffffffffffffffffffffffffffffffffffffffff163b119050919050565b6040518060600160405280600073ffffffffffffffffffffffffffffffffffffffff16815260200160608152602001606081525090565b828054611eab90612c3e565b90600052602060002090601f016020900481019282611ecd5760008555611f14565b82601f10611ee657805160ff1916838001178555611f14565b82800160010185558215611f14579182015b82811115611f13578251825591602001919060010190611ef8565b5b509050611f219190611f25565b5090565b5b80821115611f3e576000816000905550600101611f26565b5090565b6000611f55611f5084612a17565b6129f2565b905082815260208101848484011115611f6d57600080fd5b611f78848285612bfc565b509392505050565b6000611f93611f8e84612a48565b6129f2565b905082815260208101848484011115611fab57600080fd5b611fb6848285612bfc565b509392505050565b600081359050611fcd81613266565b92915050565b600081359050611fe28161327d565b92915050565b600081359050611ff781613294565b92915050565b60008151905061200c81613294565b92915050565b600082601f83011261202357600080fd5b8135612033848260208601611f42565b91505092915050565b600082601f83011261204d57600080fd5b813561205d848260208601611f80565b91505092915050565b600081359050612075816132ab565b92915050565b60006020828403121561208d57600080fd5b600061209b84828501611fbe565b91505092915050565b600080604083850312156120b757600080fd5b60006120c585828601611fbe565b92505060206120d685828601611fbe565b9150509250929050565b6000806000606084860312156120f557600080fd5b600061210386828701611fbe565b935050602061211486828701611fbe565b925050604061212586828701612066565b9150509250925092565b6000806000806080858703121561214557600080fd5b600061215387828801611fbe565b945050602061216487828801611fbe565b935050604061217587828801612066565b925050606085013567ffffffffffffffff81111561219257600080fd5b61219e87828801612012565b91505092959194509250565b600080604083850312156121bd57600080fd5b60006121cb85828601611fbe565b92505060206121dc85828601611fd3565b9150509250929050565b600080604083850312156121f957600080fd5b600061220785828601611fbe565b925050602061221885828601612066565b9150509250929050565b60006020828403121561223457600080fd5b600061224284828501611fe8565b91505092915050565b60006020828403121561225d57600080fd5b600061226b84828501611ffd565b91505092915050565b6000806040838503121561228757600080fd5b600083013567ffffffffffffffff8111156122a157600080fd5b6122ad8582860161203c565b925050602083013567ffffffffffffffff8111156122ca57600080fd5b6122d68582860161203c565b9150509250929050565b6000602082840312156122f257600080fd5b600061230084828501612066565b91505092915050565b61231281612b88565b82525050565b61232181612b88565b82525050565b61233081612b9a565b82525050565b600061234182612a79565b61234b8185612a8f565b935061235b818560208601612c0b565b61236481612dd7565b840191505092915050565b600061237a82612a84565b6123848185612aa0565b9350612394818560208601612c0b565b61239d81612dd7565b840191505092915050565b60006123b382612a84565b6123bd8185612ab1565b93506123cd818560208601612c0b565b6123d681612dd7565b840191505092915050565b60006123ec82612a84565b6123f68185612ac2565b9350612406818560208601612c0b565b80840191505092915050565b600061241f603283612ab1565b915061242a82612de8565b604082019050919050565b6000612442602583612ab1565b915061244d82612e37565b604082019050919050565b6000612465601c83612ab1565b915061247082612e86565b602082019050919050565b6000612488602483612ab1565b915061249382612eaf565b604082019050919050565b60006124ab601983612ab1565b91506124b682612efe565b602082019050919050565b60006124ce602c83612ab1565b91506124d982612f27565b604082019050919050565b60006124f1603883612ab1565b91506124fc82612f76565b604082019050919050565b6000612514602a83612ab1565b915061251f82612fc5565b604082019050919050565b6000612537602983612ab1565b915061254282613014565b604082019050919050565b600061255a602e83612ab1565b915061256582613063565b604082019050919050565b600061257d602083612ab1565b9150612588826130b2565b602082019050919050565b60006125a0603183612ab1565b91506125ab826130db565b604082019050919050565b60006125c3602c83612ab1565b91506125ce8261312a565b604082019050919050565b60006125e6602f83612ab1565b91506125f182613179565b604082019050919050565b6000612609602183612ab1565b9150612614826131c8565b604082019050919050565b600061262c603183612ab1565b915061263782613217565b604082019050919050565b600060608301600083015161265a6000860182612309565b5060208301518482036020860152612672828261236f565b9150506040830151848203604086015261268c828261236f565b9150508091505092915050565b6126a281612bf2565b82525050565b60006126b482856123e1565b91506126c082846123e1565b91508190509392505050565b60006020820190506126e16000830184612318565b92915050565b60006080820190506126fc6000830187612318565b6127096020830186612318565b6127166040830185612699565b81810360608301526127288184612336565b905095945050505050565b60006060820190506127486000830186612318565b818103602083015261275a81856123a8565b9050818103604083015261276e81846123a8565b9050949350505050565b600060208201905061278d6000830184612327565b92915050565b600060208201905081810360008301526127ad81846123a8565b905092915050565b600060208201905081810360008301526127ce81612412565b9050919050565b600060208201905081810360008301526127ee81612435565b9050919050565b6000602082019050818103600083015261280e81612458565b9050919050565b6000602082019050818103600083015261282e8161247b565b9050919050565b6000602082019050818103600083015261284e8161249e565b9050919050565b6000602082019050818103600083015261286e816124c1565b9050919050565b6000602082019050818103600083015261288e816124e4565b9050919050565b600060208201905081810360008301526128ae81612507565b9050919050565b600060208201905081810360008301526128ce8161252a565b9050919050565b600060208201905081810360008301526128ee8161254d565b9050919050565b6000602082019050818103600083015261290e81612570565b9050919050565b6000602082019050818103600083015261292e81612593565b9050919050565b6000602082019050818103600083015261294e816125b6565b9050919050565b6000602082019050818103600083015261296e816125d9565b9050919050565b6000602082019050818103600083015261298e816125fc565b9050919050565b600060208201905081810360008301526129ae8161261f565b9050919050565b600060208201905081810360008301526129cf8184612642565b905092915050565b60006020820190506129ec6000830184612699565b92915050565b60006129fc612a0d565b9050612a088282612c70565b919050565b6000604051905090565b600067ffffffffffffffff821115612a3257612a31612da8565b5b612a3b82612dd7565b9050602081019050919050565b600067ffffffffffffffff821115612a6357612a62612da8565b5b612a6c82612dd7565b9050602081019050919050565b600081519050919050565b600081519050919050565b600082825260208201905092915050565b600082825260208201905092915050565b600082825260208201905092915050565b600081905092915050565b6000612ad882612bf2565b9150612ae383612bf2565b9250827fffffffffffffffffffffffffffffffffffffffffffffffffffffffffffffffff03821115612b1857612b17612d1b565b5b828201905092915050565b6000612b2e82612bf2565b9150612b3983612bf2565b925082612b4957612b48612d4a565b5b828204905092915050565b6000612b5f82612bf2565b9150612b6a83612bf2565b925082821015612b7d57612b7c612d1b565b5b828203905092915050565b6000612b9382612bd2565b9050919050565b60008115159050919050565b60007fffffffff0000000000000000000000000000000000000000000000000000000082169050919050565b600073ffffffffffffffffffffffffffffffffffffffff82169050919050565b6000819050919050565b82818337600083830152505050565b60005b83811015612c29578082015181840152602081019050612c0e565b83811115612c38576000848401525b50505050565b60006002820490506001821680612c5657607f821691505b60208210811415612c6a57612c69612d79565b5b50919050565b612c7982612dd7565b810181811067ffffffffffffffff82111715612c9857612c97612da8565b5b80604052505050565b6000612cac82612bf2565b91507fffffffffffffffffffffffffffffffffffffffffffffffffffffffffffffffff821415612cdf57612cde612d1b565b5b600182019050919050565b6000612cf582612bf2565b9150612d0083612bf2565b925082612d1057612d0f612d4a565b5b828206905092915050565b7f4e487b7100000000000000000000000000000000000000000000000000000000600052601160045260246000fd5b7f4e487b7100000000000000000000000000000000000000000000000000000000600052601260045260246000fd5b7f4e487b7100000000000000000000000000000000000000000000000000000000600052602260045260246000fd5b7f4e487b7100000000000000000000000000000000000000000000000000000000600052604160045260246000fd5b6000601f19601f8301169050919050565b7f4552433732313a207472616e7366657220746f206e6f6e20455243373231526560008201527f63656976657220696d706c656d656e7465720000000000000000000000000000602082015250565b7f4552433732313a207472616e736665722066726f6d20696e636f72726563742060008201527f6f776e6572000000000000000000000000000000000000000000000000000000602082015250565b7f4552433732313a20746f6b656e20616c7265616479206d696e74656400000000600082015250565b7f4552433732313a207472616e7366657220746f20746865207a65726f2061646460008201527f7265737300000000000000000000000000000000000000000000000000000000602082015250565b7f4552433732313a20617070726f766520746f2063616c6c657200000000000000600082015250565b7f4552433732313a206f70657261746f7220717565727920666f72206e6f6e657860008201527f697374656e7420746f6b656e0000000000000000000000000000000000000000602082015250565b7f4552433732313a20617070726f76652063616c6c6572206973206e6f74206f7760008201527f6e6572206e6f7220617070726f76656420666f7220616c6c0000000000000000602082015250565b7f4552433732313a2062616c616e636520717565727920666f7220746865207a6560008201527f726f206164647265737300000000000000000000000000000000000000000000602082015250565b7f4552433732313a206f776e657220717565727920666f72206e6f6e657869737460008201527f656e7420746f6b656e0000000000000000000000000000000000000000000000602082015250565b7f45524337323155524953746f726167653a2055524920736574206f66206e6f6e60008201527f6578697374656e7420746f6b656e000000000000000000000000000000000000602082015250565b7f4552433732313a206d696e7420746f20746865207a65726f2061646472657373600082015250565b7f45524337323155524953746f726167653a2055524920717565727920666f722060008201527f6e6f6e6578697374656e7420746f6b656e000000000000000000000000000000602082015250565b7f4552433732313a20617070726f76656420717565727920666f72206e6f6e657860008201527f697374656e7420746f6b656e0000000000000000000000000000000000000000602082015250565b7f4552433732314d657461646174613a2055524920717565727920666f72206e6f60008201527f6e6578697374656e7420746f6b656e0000000000000000000000000000000000602082015250565b7f4552433732313a20617070726f76616c20746f2063757272656e74206f776e6560008201527f7200000000000000000000000000000000000000000000000000000000000000602082015250565b7f4552433732313a207472616e736665722063616c6c6572206973206e6f74206f60008201527f776e6572206e6f7220617070726f766564000000000000000000000000000000602082015250565b61326f81612b88565b811461327a57600080fd5b50565b61328681612b9a565b811461329157600080fd5b50565b61329d81612ba6565b81146132a857600080fd5b50565b6132b481612bf2565b81146132bf57600080fd5b5056fe646174613a6170706c69636174696f6e2f6a736f6e3b6261736536342c65776f6749434167496d3568625755694f694169556d567a6457316c546b5a554969774b4943416749434a6b5a584e6a636d6c7764476c766269493649434a426269424f526c51675a6e4a76625342306147556761476c6e614778354947466a593278686157316c5a43427a63585668636d5567593239736247566a64476c766269497343694a706257466e5a534936496d68306448427a4f6938765a3246305a58646865533577615735686447457559327876645751766158426d637939526255356d62574e5359585932656e70325345777a5a32745a595535714f484a4b52303130576e5a5855327454526a5a49636b52784e3064364e544a3049677039a2646970667358221220e47699702ac573126f0f04d13254d0303a7a8275893fc6acb9315564ec8937b464736f6c63430008010033",
  "linkReferences": {},
  "deployedLinkReferences": {}
}